:100000000C94FD030C941A040C941A040C941A0416
:100010000C941A040C941A040C941A040C941A04E8
:100020000C941A040C941A040C94F72B0C94B32B14
:100030000C94F42C0C941A040C941A040C941A04C6
:100040000C941A040C941A040C941A040C941A04B8
:100050000C941A040C94D02C0C941A040C941A04CA
:100060000C941A040C941A040C941A040C941A0498
:100070000C941A040C941A040C941A040C941A0488
:100080000C941A040C941A040C941A040C941A0478
:100090000C941A040C941A040C941A040C941A0468
:1000A0000C941A040C941A040C941A040501090205
:1000B000A10185020901A100050919012905150001
:1000C00025019505750181029501750381010501E1
:1000D000093009311581257F950275088106093897
:1000E0001581257F950175088106050C0A380215D2
:1000F00081257F950175088106C0C005010980A191
:1001000001850319012AB700150126B7009501756D
:10011000108100C0050C0901A101850419012AA064
:1001200002150126A002950175108100C005010984
:1001300006A1018506050719E029E71500250195A7
:1001400008750181020507190029EF1500250195A1
:10015000F0750181020508190129059505750191C0
:1001600002950175039101C00660FF0961A10109B3
:1001700062150026FF0095207508810209631500AD
:1001800026FF00952075089102C005010906A1010E
:10019000050719E029E71500250195087501810279
:1001A0009501750881010507190029FF150026FF33
:1001B0000095067508810005081901290595057542
:1001C000019102950175039101C00000000000003B
:1001D000000000000000000000000000000000001F
:1001E00000000000000000000000000000007E0F82
:1001F00000D4FFFFFFC700000078000000000000EF
:1002000000002A2B28000000000000000000000071
:10021000000000000029000000002C1E34202122D4
:1002200024342627252E362D3738271E1F2021223D
:10023000232425263333362E37381F0405060708B6
:10024000090A0B0C0D0E0F101112131415161718A6
:10025000191A1B1C1D2F3130232D350405060708E4
:10026000090A0B0C0D0E0F10111213141516171886
:10027000191A1B1C1D2F3130354CFD377A585A0086
:100280000004E6D6B4460200210116000000742FD7
:10029000E5A3E004F9017E5D003D8889C65436C3BC
:1002A000174FE4F605DCEF330A17A82A588B70BD08
:1002B000620651BEA055CCF72ECC4B9BA072F1F834
:1002C00029CB8E33CA4A79C6504E85010DD9517D4E
:1002D00033721ED9A3CBAC7167CF02806B46A15B92
:1002E0002BB3E5F67CF60DFBB74EB5FEC42DAE077D
:1002F000889E86F9F205A0601BE81B5638FEF6685A
:10030000DEC9B816EF22953C0A1AE8B3972D8E2A5B
:100310005BAE121789C9B56024564BCE7FFE0559D6
:1003200033FF7436FCCCBBD0411B93DADFF01E7E6A
:1003300004E1B67A1E308669029A3C026ED2BB5E38
:100340000C05273ED8089C3DD091EA6C23047983A4
:100350009203B0116FCDE1DA84C2850FEF62E32919
:100360006369874388C4ADE56C3E8251AE9E66A644
:10037000B1327D1D9D394C94FD2827795EF0579848
:10038000B55BD94F7709471160B2BFD9FA818A208E
:100390007DFCB38946A022F6EC30B2B44F26115151
:1003A000108EF0BA44D5BF2C42BBE5627BF1D53E3E
:1003B0004A4B352D6EF2DEDAFB92EC0E846D3CD7A3
:1003C0008C969C3F687101E67D1B8EF39C94926233
:1003D000FE3302DAA99F94D5350A223F705C3F4C68
:1003E00087CEFEACFC312AD439B0E839D2332EE4C2
:1003F0003DB96ABCCD2B3C7A78AE43F95B798F402E
:1004000073A8FB2365E4BB63F324AE6D5A090D9317
:10041000858AC85542A6150000002DE6EB5C0B321C
:10042000ED2500019A03FA090000645602DEB1C40A
:1004300067FB020000000004595A14001A0008006B
:10044000150017001C0018000C00120013002A00F1
:1004500004001600070009000A000B000D000E0042
:100460000F00340000001D001B00060019000500ED
:100470001100100036003700380000000000E300D3
:1004800001512A002C002C0000000251005C0000E9
:100490000000010001000100010001000100010055
:1004A0000100010001000100010001000100010044
:1004B0000100010001000100010001000000010035
:1004C0000100010001000100010001000100010024
:1004D0000100000000000100010001000100010016
:1004E0000000010001000000000001000100010007
:1004F00001000100010001000100010001000100F4
:1005000001000100010001000100010001000100E3
:1005100001000100000001000100010001000100D4
:1005200001000100010001000100000000000100C5
:1005300001000100010001000000010001000000B5
:1005400000000100010001000100010001000100A4
:100550000100010001000100010001000100010093
:100560000100010001000100010001000000010084
:100570000100010001000100010001000100010073
:100580000100000000000100010001000100010065
:100590000000010001000000000001000100010056
:1005A0000100010001000100010001000100010043
:1005B0000100010001000100010001000100010033
:1005C0000100010000000100010001000100010024
:1005D0000100010001000100010000000000010015
:1005E0000100010001000100000001000100000005
:1005F00000000100010001000100010001000100F4
:1006000001000100010001000100010001000100E2
:1006100001000100010001000100010000000100D3
:1006200001000100010001000100010001000100C2
:1006300001000000000001000100010001000100B4
:100640000000010001000000000001000100400462
:100650005B0E8E0E0000020002003C045B0E8E0E4C
:1006600000000300010041045B0E8E0E0000040038
:10067000020026045B0E8E0E6F0705000100420487
:100680005B0E8E0E00000600020028045B0E8E0E2C
:100690000000070002003E045B0E8E0E0000080002
:1006A000010043045B0E8E0E0000090002002A04C4
:1006B0005B0E8E0E4A070A0002002C045B0E8E0EA3
:1006C0004A070B0002002E045B0E8E0E4A070C0038
:1006D000020030045B0E8E0E4A070D000200320449
:1006E0005B0E8E0E4A070E00020034045B0E8E0E67
:1006F0004A070F00020036045B0E8E0E4A071000F8
:10070000020038045B0E8E0E4A07110002003A0404
:100710005B0E8E0E4A071200020044045B0E8E0E22
:1007200000001300020046045B0E8E0E0000140051
:10073000010048045B0E8E0E000015000000000052
:10074000D0063A16000009025B00030100A0FA0976
:1007500004000001030101000921110100012240F0
:1007600000070581030800010904010002030000DD
:100770000009211101000122220007058203200047
:100780000107050303200001090402000103000022
:100790000009211101000122BC000705840320008B
:1007A000011201000200000008464D110001000185
:1007B0000203011C037600690061006C003A0066C8
:1007C0000036003400630032006200330063000032
:1007D0000012036D00610074006D0061007400334D
:1007E00000350000000E036B00690065006E0063B9
:1007F000006F000000040309040011241FBECFEFA6
:10080000DAE0DEBFCDBF11E0A0E0B1E0E6EAFAE653
:1008100002C005900D92A637B107D9F725E0A6E7EB
:10082000B1E001C01D92A034B207E1F70E941B2D78
:100830000C9426350C940000E8EDF0E080818E7F6A
:1008400080831092E2001092DA001092E100A0EE94
:10085000B0E08C9181608C9380818F77808319BC0C
:10086000A7EDB0E08C918E7F8C9380818F7E80830A
:1008700010920F0508952091E4003091E50095E66F
:10088000A9012091EC00822F817020FF06C0809189
:10089000E80080FF06C080E008952091E80022FD76
:1008A0001AC080913405882389F0853089F08091C1
:1008B000EB0085FD0FC02091E4003091E500421768
:1008C0005307F9F29150E1F684E0089582E008952B
:1008D00083E0089581E00895EF92FF920F931F93B4
:1008E000CF937C018B010E943B04C82F811117C05C
:1008F0008091E80085FD0BC08091E8008E778093A1
:10090000E8000E943B04882399F3C82F08C0F70130
:1009100081917F018093F1000150110949F78C2FDB
:10092000CF911F910F91FF90EF9008958091360520
:1009300087FF13C08091E80082FF06C08091E80025
:100940008B778093E80004C0809134058111F2CF49
:100950000895809134058823D9F38091E80080FFC1
:10096000F8CF8091E8008E77ECCF982F9093E90034
:10097000242F762F50E0891731F07091EC002091F0
:10098000ED005091F00021FD07C09F5F973071F797
:100990008093E90081E008953091EB003E7F309331
:1009A000EB003091ED003D7F3093ED003091EB0096
:1009B00031603093EB007093EC002093ED00509386
:1009C000F0002091EE0027FDE0CF80E00895B0E038
:1009D000A0E0EDEEF4E00C947934C8EDD0E088812D
:1009E0008F7E8883E7EDF0E080818160808384E002
:1009F00082BF81E080930F0588818E7F888302EE1D
:100A000010E0F80110821092DA0081EEC82ED12C8D
:100A1000F601108288818F77888388818068888337
:100A200088818F7D888319BC10923405109235051A
:100A3000109233051092320590EEE92EF12CF70159
:100A400080818B7F808388818160888342E060E041
:100A500080E00E94B504F60180818E7F8083F801DA
:100A6000808181608083808188608083F7018081BC
:100A70008E7F8083888180618883CDB7DEB7E8E090
:100A80000C949534FC0180913C0590913D058617AE
:100A90009707A0F06115710529F49091E8009E7701
:100AA0009093E80090E06115710551F4911108C030
:100AB0008091E80082FF34C080E00895BC01F2CF4D
:100AC000809134058823C1F18530C1F18091E8001F
:100AD00083FD30C08091E80082FDEACF8091E8007C
:100AE00080FFE1CF8091F3002091F200382F611553
:100AF000710519F02830310558F091E028303105A2
:100B000009F090E02091E8002E772093E800CBCF09
:100B100081918093F100615071092F5F3F4FE7CFC2
:100B200080913405882341F0853041F08091E800C0
:100B300083FFBECF81E0089582E0089583E00895A9
:100B4000089580911105089587E797E7909301082C
:100B50008093000888E19AE00FB6F894A8958093F6
:100B600060000FBE90936000FFCF9C014FB7F894D8
:100B70008091060590910705A0910805B09109059F
:100B80004FBF821B930B08952FB7F8946091060511
:100B90007091070580910805909109052FBF089570
:100BA0002FB7F8948091060590910705A09108054C
:100BB000B09109052FBF08952091030530910405D8
:100BC0002817390771F09093040580930305E0918D
:100BD0000105F0910205309721F00084F185E02DA8
:100BE000099508952091FF043091000528173907D1
:100BF00071F0909300058093FF04E0910105F0915E
:100C00000205309721F00680F781E02D09950895BF
:100C1000E0910105F0910205309729F00190F081F3
:100C2000E02D0995089580E00895CF93DF93EC01BE
:100C300040911B0450911C0460911D0470911E048E
:100C40002FB7F8948091060590910705A0910805AB
:100C5000B09109052FBF841B950BA60BB70B843FE2
:100C60009140A105B10518F580911B0490911C04D9
:100C7000A0911D04B0911E04809317049093180452
:100C8000A0931904B0931A0484EF91E0A0E0B0E0BF
:100C90008093130490931404A0931504B093160446
:100CA000D0932304C0932204DF91CF9108950E9432
:100CB000C4056093170470931804809319049093EB
:100CC0001A0482E390E0A0E0B0E0E2CFFC0184816E
:100CD000862351F492819923B9F06923808583FF9B
:100CE00005C081E061110FC080E00895892F8F70E9
:100CF00092959F70982B862F8F7062956F70682BDE
:100D000081E09613F1CF089581E0FDCF452B39F0B6
:100D1000682381E06F3F09F080E08170089581E0F1
:100D2000FCCFDC0160910F0480911004962F891391
:100D300001C00895292F30E0F901EE0FFF1FE95F90
:100D4000FB4F408151814A175B07A1F487E08A9FDE
:100D5000A0018B9F500D112441535C4F81E0FA019B
:100D600084839613E6CF2F5F3F4F23703327209362
:100D70000F0408952F5F3F4F922F9370D8CF10929A
:100D80006C0310926B03EFECF3E08581811102C0DC
:100D900014821682379684E0E730F807B1F7089599
:100DA000B0E0A0E0E6EDF6E00C9477348FEF9FEF33
:100DB0004430510508F469C040910A0541FB882779
:100DC00080F990E0880F991F42FB002700F910E09E
:100DD000000F111F000F111F802B912B40FBCC2403
:100DE000C0F8D12C8C299D2943FB222720F9C22F42
:100DF000E0E0DE2F53E0CC0FDD1F5A95E1F78C2B9E
:100E00009D2B44FBAA27A0F9B0E0E4E0AA0FBB1F8A
:100E1000EA95E1F78A2B9B2B45FBEE27E0F9F0E002
:100E2000A5E0EE0FFF1FAA95E1F78E2B9F2B46FB47
:100E3000222720F930E0B6E0220F331FBA95E1F700
:100E4000822B932B47FB222720F930E03695322F57
:100E5000222737952795822B932B20910B05322F34
:100E60003170F32EE82EF92A26952170B22EBB0C94
:100E7000A82EBF28C501BB0CAA0BBB0BFB018083AE
:100E80009183A283B38390E080E0CDB7DEB7EAE040
:100E90000C949334E6E2F4E0848195812AE030E01A
:100EA000B9010E943A34609318018681809317013A
:100EB00082858093160184858093150186859785A8
:100EC000B9010E943A346093140180898093130120
:100ED0008289809312018489809311010895809101
:100EE00026049091270490931A0180931901089584
:100EF00081152CE5920741F420910F0130911001EA
:100F0000232B11F490E080E008950E94D0059C010D
:100F10009091510280915202982B21F030934E0211
:100F200020934D029091530280915402982B21F00E
:100F300030934C0220934B02E0910105F0910205A1
:100F4000309749F082E080934F020480F581E02DD4
:100F50008FE492E00995089590915102803F59F4F1
:100F60008091520287FF0DC01092520291110BC066
:100F70001092490208C0813F81F4809152021816F4
:100F80009CF3992381F08091530290915402892B14
:100F900009F064C0109248020895823F49F497FF17
:100FA000F0CF10925102809152028111ECCFE0CF2C
:100FB000833F19F41916ACF3E4CF20915302893F13
:100FC00029F41216F4F610925302DBCF8A3F19F47B
:100FD00027FFD7CFF8CF209154028B3F29F427FF6A
:100FE000D0CF10925402CDCF8C3F19F41216CCF30F
:100FF000C8CF843F31F4809150028E7F809350029D
:10100000C0CF853F21F4809150028D7FF7CF863F7E
:1010100021F4809150028B7FF1CF873F21F48091A2
:101020005002877FEBCF883F21F4809150028F7E62
:10103000E5CF8D3F31F480914A028E7F80934A0242
:10104000A0CF8E3F21F480914A028D7FF7CF8F3F52
:1010500009F097CF80914A028B7FF0CF089580915D
:101060004A0280FF0CC06091120170E0759567958F
:10107000759567956115710549F1862F089581FF72
:1010800006C06091120170E075956795F3CF60918D
:10109000120182FD0BC0909148029923A1F060914A
:1010A000110180911201961738F0682F70E06038B6
:1010B000710500F38FE70895899FC001112470E046
:1010C0000E944E34F4CF61E070E0D7CF81E0089504
:1010D00080914A0260912E0470912F0480FF16C007
:1010E00020911601269FC001279F900D1124BC015D
:1010F00076956795769567956038710508F043C0D9
:101100006115710509F441C0862F089581FF0BC058
:1011100020911601269FC001279F900D1124BC012C
:1011200076956795E9CF82FF09C0809116019B01F2
:10113000829FB001839F700D1124DECF2091490260
:101140002223D1F29091150180911601482F50E091
:10115000291748F0CB01849FB001859F700D949FA3
:10116000700D1124C9CF289F90011124269FA00142
:10117000279F500D369F500D1124692F70E0CA0132
:101180000E943A34B9CF8FE7089581E00895803FF7
:1011900031F40E9468088195809352020895813F3E
:1011A00019F40E946808F8CF823F31F40E94680861
:1011B0008195809351020895833F19F40E94680835
:1011C000F8CF893F29F40E942F0880935302089595
:1011D0008A3F21F40E942F088195F7CF8B3F31F48D
:1011E0000E942F0881958093540208958C3F19F432
:1011F0000E942F08F8CF843F31F480915002816023
:10120000809350020895853F21F4809150028260BE
:10121000F7CF863F21F4809150028460F1CF873F61
:1012200021F4809150028860EBCF883F21F48091B7
:1012300050028061E5CF8D3F31F480914A02816098
:1012400080934A0208958E3F21F480914A02826081
:10125000F7CF8F3FB9F780914A028460F1CF80E0E9
:101260000895F894E82FE295EF70F0E031A1282F6F
:101270002F7081E090E001C0880F2A95EAF7982F3F
:101280009095932391A392A1892B82A3789408959A
:1012900090910A0592FF06C0282F28712830F9F492
:1012A000877F846093FF06C0282F28712831F1F4CE
:1012B000877E846120910B0520FF06C0382F38718E
:1012C0003830D9F4877F816021FF06C0282F28712C
:1012D0002831D1F4877E816194FD877E0895282F7F
:1012E00024712430F9F68B7F8860DCCF282F24719D
:1012F000243101F78B7E8861DDCF382F3171313099
:1013000019F78E7F8860E0CF282F2171213121F7D6
:101310008E7E8861E1CFCF93DF93EC018238910517
:10132000A9F1D8F58133910509F496C048F58932C1
:10133000910509F48AC08A9709F495C0C11521E581
:10134000D20708F0BCC0C11530E5D30708F014C1BE
:10135000C83ED10508F09CC0C03ED10560F5C83A32
:10136000D10508F087C0C53AD10508F0FDC0C130ED
:10137000D10509F12097F9F0C430D105E0F440C05F
:101380008533910509F45AC0C997C1F680910A05C1
:10139000837089F0C0EED0E00EC0833E910599F1D4
:1013A00070F4803E910501F1823E910539F68091FD
:1013B0000A0582FD21C0CE01DF91CF910895863EBE
:1013C000910561F1873E910571F1843E910509F027
:1013D000B5CF80910B0581FFEECF80910A05C7EE56
:1013E000D0E084FD0DC0E7CF80910A0580FD12C1D9
:1013F00090910B0590FFDFCFC3EED0E084FFDBCFF1
:10140000D0E0C0E0D8CF80910A0582FD06C190915E
:101410000B0590FDBFCF84FFCECFF2CF80910A05A0
:1014200083FDDDCFC8CF80910A0583FDF9C090917F
:101430000B0591FFF0CFC4EED0E0BDCF80910A053F
:1014400085FFB9CFC9E2D0E0B6CF80910A0585FF0C
:10145000B2CFC5E3D0E0AFCF80910A0586FFABCF16
:10146000CAE2D0E0A8CF80910A0586FFA4CFC1E3ED
:10147000D0E0A1CFCF3BD10518F6C85AD0E0CC0FB1
:10148000DD1FC75DDE4F0990D881C02DD46493CF96
:10149000C11540E2D40758F4C11581E0D80708F01F
:1014A0008ACFC03FD10508F4ABCFD06584CFC1153A
:1014B00090E4D90708F4A4CFDF70D06A7CCFC115BF
:1014C00025E5D20700F5C11534E5D30708F08AC039
:1014D000C11543E5D40708F071C0C11582E5D807EE
:1014E00008F467C0CE018370992721E030E002C084
:1014F000220F331F8A95E2F7C695C69580E2C89FF2
:10150000E001112452C0C11599E5D907A8F4C1150D
:1015100028E5D20708F06BC0C11536E5D30708F0FF
:101520006FCF8C2F0E944809C82FD0E0DC2FCC272A
:10153000CC27DF71D0623FCFC1154AE5D40708F44C
:101540005BC0CE0190568115904208F059CF8D2F87
:101550008F710E94480990E0982F882788279F71F3
:101560009C012C2BE901E6CFC55AD0E0CA5DDE4FC5
:10157000C881D0E0D0641FCFCE01E4E09695879576
:10158000EA95E1F783702C2F26952695237040E28B
:10159000249F90011124382B8C2F8370C1E0D0E060
:1015A00002C0CC0FDD1F8A95E2F7C22BD32BDC687B
:1015B00002CFDC2FCC27C16FD06AFDCECE01837065
:1015C000992721E030E002C0220F331F8A95E2F70D
:1015D000C695C69590E2C99FE0011124C22BD32B7A
:1015E000DA68E9CEDC2FCC27C46FD06AE4CEDC2FDA
:1015F000CC27C06FD06ADFCE8C2F8F700E94480935
:1016000034E0D695C7953A95E1F7CF709C2FEC0161
:10161000D069D1CEC9E3D0E0CECEC2EED0E0CBCE01
:10162000C6EED0E0C8CE80911F02882331F0109220
:101630001F0210921E0210921D020895CF93C82F10
:1016400080910B0582FF0CC080911F028C1741F026
:101650000E94D00590931E0280931D02C0931F022A
:10166000CF910895809590913F05982390933F05E1
:10167000089580959091460398239093460308958A
:1016800090914603892B8093460308951092FC01A4
:101690001092FB011092FA01089580912804909114
:1016A0002904892B89F00E94D00520911D023091D8
:1016B0001E02AC01421B530B81E0209128043091A3
:1016C00029044217530708F480E08170089590912F
:1016D0001D019923D1F090910A0597FF16C0E82FBC
:1016E000E695E695E695EE31E0F4F0E0E858FE4F39
:1016F000282F277081E090E001C0880F2A95EAF733
:1017000080959281892382830895EAE7F1E091919F
:10171000891303C0DF0111971C9291E0E038F907AB
:10172000B1F7089590911D019923C1F090910A0598
:1017300097FF14C0E82FE695E695E695EE31F8F4AC
:10174000F0E0E858FE4F877021E030E001C0220F42
:101750008A95EAF78281822B82830895AAE7B1E015
:10176000EFEF90E02D91821751F0EF3F19F4211126
:1017700001C0E92F9F5F9630A9F7EF3F09F4089564
:101780000E2E000CFF0BE858FE4FE6CF2091F9011A
:101790009091B801291302C080E0089530E0F9016A
:1017A00053E0EE0FFF1F5A95E1F7E754FE4F5181CA
:1017B000561306C05081581303C05281541304C0FD
:1017C0002F5F3F4F2770E6CF81E008958091F901A8
:1017D0009091B801981301C008958F5F8770FACF78
:1017E000292F943078F58B3068F590E03BE0239F0B
:1017F000800D911D1124682F677023E096958795C1
:101800002A95E1F7FC01EE0FFF1FE80FF91FE256E2
:10181000FE4F50E040E080E0219130E0062E02C013
:10182000369527950A94E2F721703327042E01C0DC
:10183000220F0A94EAF7822B4F5F5F4F4330510526
:1018400059F7089580E00895292F943098F58B304A
:1018500088F590E03BE0239F800D911D1124282FF7
:10186000277041E001C0440F2A95EAF723E09695DE
:1018700087952A95E1F7FC01EE0FFF1FE80FF91F8E
:10188000E256FE4F30E020E070E05191DF01119709
:10189000CB01022E02C0969587950A94E2F78170DB
:1018A00081958527842385278C932F5F3F4F233095
:1018B000310559F7089592959F70963091F058F43C
:1018C000925F9F70923058F4803F19F030F4883E58
:1018D00030F481E008959A5FF4CF843FD1F380E043
:1018E0000895883EB0F3813FD1F7F3CF9C013A953C
:1018F00021153F4150F5FC01EE27F170BC01662730
:101900007270AC01442754709C012227387094FFF8
:101910000EC080E1EF2B09F480E0672B09F08062B4
:10192000452B09F08064232B89F08068089581E0BD
:10193000EF2B09F480E0672B09F08260452B09F05A
:101940008460232B19F08860089580E008958093C7
:101950000C0570930E0560930D058091340584305D
:10196000F9F48093E9008FEF9091E800815095FDA4
:1019700006C095ED9A95F1F700008111F5CF8091A1
:10198000E80085FF0DC050E040E063E070E08CE0CF
:1019900095E00E946C048091E8008E778093E800C7
:1019A0000895BC0184E00E94A70C0895BC0183E067
:1019B0000E94A70C08959C0184E08093E9009FEFAA
:1019C0008091E800915085FD06C085ED8A95F1F77C
:1019D00000009111F5CF8091E80085FF0CC050E028
:1019E00040E066E070E0C9010E946C048091E8006C
:1019F0008E778093E8000895CF93DF93EC01809178
:101A00001D018823B1F180910A0587FF32C060E291
:101A100084E08093E9008FEF9091E800815095FD7C
:101A200006C095ED9A95F1F700008111F5CF8091F0
:101A3000E80085FF1BC080911D0170E050E040E090
:101A4000811104C050E040E068E070E0CE010E94E7
:101A50006C048091E8008E778093E80080E2FE01BC
:101A6000A2E1B5E001900D928A95E1F7DF91CF9167
:101A7000089568E081E0CDCF019708F40895EFE97B
:101A8000FFE03197F1F700C00000F6CF0F931F93EE
:101A9000CF93DF9306E214E0C7E3D2E0CE010E94C9
:101AA000DC34F80181938F012196CB35F2E0DF071A
:101AB000A9F7C4E5D6E0FE0185919491009711F055
:101AC000FC0109952C96F7E0C035DF07A1F7DF91FF
:101AD000CF911F910F9108950F931F93CF93DF9391
:101AE000863030F5643020F54B3010F5C42FD0E04F
:101AF000CC0FDD1F26E1629FC00DD11D112438E5FA
:101B0000839FC00DD11D1124CE0187960E94DC3425
:101B1000082F10E0102F0027CE0188960E94DC3499
:101B20009801282BC901DF91CF911F910F91089542
:101B300090E080E0F8CF462F209144033091450398
:101B4000232B99F4703F39F4603F79F4809142037C
:101B5000909143030895863040F4743030F46B3034
:101B600020F4672F0E946C0D089590E080E00895A6
:101B7000CF92DF92FF920F931F93CF93DF936C016D
:101B800000913E0580912002082BC7E0D0E010E0D4
:101B9000FC2EC8010C2E02C0959587950A94E2F799
:101BA00080FD0CC02197A0F7F12C8F2DDF91CF91F4
:101BB0001F910F91FF90DF90CF900895B6018C2F69
:101BC0000E949B0D0E948B09019761F3EECFCF938A
:101BD000DF93EC010E94B80DBE010E949B0D0E9494
:101BE0008B09DF91CF910895FC0186819781009741
:101BF00029F00E948B090E945B0C089580819181DD
:101C00000E94E70DF8CFA5E0B0E0E9E0FEE00C941B
:101C10007E3449835A8389819A81662399F02223ED
:101C200089F00E94B80D182F682F89819A810E942F
:101C3000240C69817A81812F0E949B0D2596E3E017
:101C40000C949A340E94F00B182FF3CFFC01262F2E
:101C500086819781009739F4408151816281738137
:101C600084810E94030E089583E290E00E94DC3498
:101C7000823789F484E290E00E94DC348E3659F495
:101C800085E290E00E94DC3491E0883B09F090E02E
:101C9000892F8170089580E0FCCFCF9384E090E09D
:101CA0000E94DC34C82F82E290E00E94DC34982F3E
:101CB0008C2FCF910895DB01FC0132962591349150
:101CC0004217530758F0FC01349665917491A901AD
:101CD000CD010E94BC3490E080E008958FEF9FEF2B
:101CE00008950F931F93CF93DF9306E214E0C7E3A9
:101CF000D2E0CE010E94DC34F80161918F016817B7
:101D000019F0CE010E94EA342196CB35F2E0DF07CC
:101D100081F7DF91CF911F910F910895DA019C0116
:101D20002E5F3F4FF90145915491F901259134916E
:101D3000A217B30758F0FC013496859194910E9444
:101D4000BC340E94710E90E080E008958FEF9FEF09
:101D50000895CF93DF93CBE4D3E060E0CE010E94FF
:101D6000EA342196C11584E0D807B9F7DF91CF9105
:101D700008951F93CF93DF93122F8630E0F46430E1
:101D8000D0F44B30C0F4C42FD0E0CC0FDD1F96E16F
:101D9000699FC00DD11D112498E5899FC00DD11DEB
:101DA0001124632FCE0187960E94EA34612FCE0161
:101DB00088960E94EA34DF91CF911F910895CF93C6
:101DC000C82F6FEF811162E783E290E00E94EA344E
:101DD0006FEFC1116EE684E290E00E94EA346FEF8B
:101DE000C11168EB85E290E00E94EA34CF9108953A
:101DF000CF93C92F682F84E090E00E94EA346C2FC3
:101E000082E290E00E94EA34CF9108959B018830ED
:101E100070F49AE0899FB0011124655A7D4F4AE021
:101E200050E0C9010E94CC3490E080E008958FEF2B
:101E30009FEF0895AAE0B0E0E0E2FFE00C94753473
:101E40000FE414E0F12CE12C83E1C82E8BE2D82EB4
:101E50009AE3A92E9BE2B92E28E8822E2AE2922E3E
:101E6000F801D182C082B382A28295828482F58AEF
:101E7000E48ABE016F5F7F4F8E2D0E94060F892B73
:101E800029F489859A85F801938B828BFFEFEF1AED
:101E9000FF0A0A5E1F4F88E0E816F10409F72A9648
:101EA000ECE00C949134AAE0B0E0E9E5FFE00C949A
:101EB00075340AEC12E088EBC82E82E0D82E9BEF36
:101EC000E92E92E0F92E27E0922E37EBA32E32E096
:101ED000B32E88248394D6010D931D936D014AE09F
:101EE00050E0B701CE0101960E94CC34F80138963B
:101EF000DF01892D1D928A95E9F789819A81D801A0
:101F000011969C938E938F8112968C9312978D814C
:101F100013968C931397888514968C9314978985C0
:101F200015968C9315978B819C8117969C938E9315
:101F3000169718961C9218978A8587FF3CC01E96A4
:101F40001C921E921D9780FF03C0D80118968C9298
:101F500081FF04C0F80190859260908782FF07C0DE
:101F6000D80118969C911897946018969C9383FFBB
:101F700004C0F80190859860908784FF07C0D8015D
:101F800018969C911897906118969C9385FF04C0B1
:101F9000F801808580628087015F1F4FFAE0EF0EB5
:101FA000F11C8BE4E81683E0F80609F094CF2A963A
:101FB000ECE00C949134F801B686A586C4CFAAE073
:101FC000B0E0E5EEFFE00C947934E7E6F2E080E57E
:101FD000DF011D928A95E9F7EFECF3E088E3DF017A
:101FE0001D928A95E9F787E6C82E82E0D82E7F01F8
:101FF0000BEA12E0F701D182C0824AE050E0B8015A
:10200000CE0101960E94CC3488E0FE013196D601C3
:1020100001900D928A95E1F789859A85D7011396EB
:102020009C938E931297BAE0CB0ED11CE7E0EE0E94
:10203000F11C065F1F4F0B3FF2E01F07D9F62A96EF
:10204000E8E00C949534A8E0B0E0E9E2F0E10C940B
:1020500071348E010F5F1F4F88E0F80111928A954D
:10206000E9F797E5E92E91E0F92E68012BE5422E7C
:1020700021E0522E66246394712C46E6842E41E0C2
:10208000942EF70181917F018F3F09F445C0F894A8
:10209000E82FE295EF70F0E021A18F70A30102C05C
:1020A000440F551F8A95E2F7CA01922F982B91A3EE
:1020B00092A18095892382A3789400C0EBE5F1E09A
:1020C00021E030E0B12CA12C41914F3F09F476C0C2
:1020D000A42FA295AF70B0E090968C9190E04F70D5
:1020E00002C0959587954A95E2F780FD67C0C901C2
:1020F000A82AB92A220F331F8E169F0629F7F70147
:10210000319780818F3F11F00E94310950EA5A9532
:10211000F1F7F601B182A082F2E0CF0ED11C4E148D
:102120005F0409F0AECF48E050E0B80184E292E0ED
:102130000E94AF34FF24F394009709F4F12C892B0B
:1021400009F43FC088E0F801A4E2B2E001900D92EA
:102150008A95E1F781E0809323020E94D005909355
:1021600022028093210280912102909122020E94FA
:10217000B505059750F18091240290912502909326
:102180004102809340028091260290912702909311
:1021900043028093420280912802909129029093F9
:1021A00045028093440280912A0290912B029093E1
:1021B0004702809346021092230207C090E080E01D
:1021C00097CF809123028111CECF8F2D2896E0E109
:1021D0000C948D34CF938091460390913F05892BC9
:1021E0008093780180911F02882329F1809128042F
:1021F00090912904892B29F00E944D0B81110E9496
:10220000130B8091780190911F02892B80937801A4
:1022100080911D01882309F447C080910A0587FF3A
:1022200043C08EE1EAE7F1E090E0815008F03EC063
:1022300091110E94130BC0911F04C09580917801E9
:10224000C82380912004C82BC093780140E250E05D
:102250006DEF71E088E791E00E94AF34892B11F1B6
:1022600080E2E8E7F1E0ADEFB1E001900D928A95F0
:10227000E1F7E0910105F0910205309799F0809126
:102280001D01882349F080910A0587FF05C0C0938E
:10229000790186E0809378010280F381E02D88E760
:1022A00091E00995CF91089586E0BCCF219122233A
:1022B00009F4BBCF9F5FB9CFEF92FF920F931F93AB
:1022C000CF93DF93EC018A85811134C0EB80FC80D1
:1022D00087E5F81A26E12E9DC0012F9D900D11244F
:1022E000DC01A15BBB4F1496ED91FC9115973097E3
:1022F00031F054966D917C918B5A9B4F099586E1F4
:102300008E9D80018F9D100D1124015B1B4FF801E4
:1023100087810E94390BF80180850E94320B0E9450
:10232000EA10188219861B861E821D8210924E04A6
:1023300010924D04CDB7DEB7E6E00C949734CF93FE
:10234000DF93EC018989811116C081E0898B8F812F
:102350000E94400B80913F059885892B80933F0513
:102360000E94EA10EA81FB81309729F06C897D890F
:10237000CE0106960995DF91CF91089580911B01BA
:10238000877F80931B0182E00E94320B80911B01AA
:1023900084FF06C08F7E80931B0182E00E94400B69
:1023A00080911B0185FF06C08F7D80931B0180E219
:1023B0000E94400B0E94EA10089590E080E00E9485
:1023C000F20590E080E00E94DC0510923F050E943B
:1023D000EA1086E0EFE4F2E0DF011D928A95E9F76A
:1023E000109249021092480210924A020E948507F8
:1023F000089580933E050E94DD11089580913E0569
:10240000982F9670963021F488600E94F9110895F3
:10241000877FFBCF21E030E001C0220F8A95EAF7E9
:10242000209580913E0582230E94F9110895909194
:10243000FC01809589238093FC01282F277091F45B
:10244000282F082E000C330B9217130659F0909189
:102450000B0592FF07C08595859585950E940A1208
:102460000E94460B089590910B0592FB222720F9BC
:10247000281769F080FB92F990930B0580910A056B
:1024800090910B050E94F80E82E00E9417120895A9
:1024900021E030E001C0220F8A95EAF780913E05E5
:1024A000822B0E94F911089590910B0592FF10C0A4
:1024B00098E0899F90011124622B6093FC010E9497
:1024C00048120E94D0059093FB018093FA01089571
:1024D0000E9448120895809320020E94DD11089501
:1024E0001092460380911D01EAE7F1E0882361F034
:1024F00080910A0587FF08C08EE1DF011D928A9551
:10250000E9F70E94DD11089586E0F7CFAAE2B0E076
:10251000ECE8F2E10C947E3486E395E02091F10042
:10252000DC012D93CD01B5E08E339B07B9F7809187
:102530003705833009F472C0B8F4813009F449C01A
:10254000823009F4B3C08091E80083FF96C2809185
:102550003605909137059A3008F08FC2E92FF0E0E8
:10256000E85DFA4C0C9462348A3009F48EC08B30EA
:1025700009F471C0893039F780913605813219F735
:1025800080913A0590913B05009711F00297D9F69A
:102590008091E800877F8093E8008091E80082FFC7
:1025A00038C09091F3008091F200029731F480914D
:1025B000F100813011F0863021F48091F100809398
:1025C00011058091E8008B778093E8000E949604C3
:1025D000BACF80913605813A09F0B5CF8091E800F5
:1025E000877F8093E80080913A0590913B05892B85
:1025F00061F460E282E195E070E00E944205809122
:10260000E8008B778093E8009ECF60E090E080E068
:10261000F3CF809134058111C0CF95CF80913605DD
:10262000813A09F090CF80913A0590913B05892B32
:1026300009F089CF8091E800877F8093E80080913E
:10264000E80080FFFCCF80911D018093F100809114
:10265000E8008E77B9CF80913605813209F073CFCB
:1026600080913A0590913B05892B09F06CCF8091C0
:10267000E800877F8093E8000E94960480913805E7
:1026800080931D010E9470125ECF809136058132C9
:1026900009F059CF8091E800877F8093E8000E947D
:1026A000960480913905809310054DCF80913605B1
:1026B000813A09F048CF8091E800877F8093E80055
:1026C0008091E80080FFFCCF80911005BECF80385C
:1026D00099F0823809F0D1C180913A058F70873026
:1026E00008F0CBC18093E9008091EB0085FB88273F
:1026F00080F91092E90006C080913205909133056F
:10270000911182609091E800977F9093E800809308
:10271000F1001092F1008091E8008E77AAC1882321
:1027200009F498C1823009F0A8C18091380581115F
:102730009BC180913A058F702FEF280F263008F04B
:102740009CC18093E9002091EB0020FF8DC1933064
:1027500031F48091EB0080628093EB0085C1909111
:10276000EB0090619093EB0021E030E001C0220F7C
:102770008A95EAF72093EA001092EA008091EB0034
:102780008860EACF811179C1109138051F77809157
:10279000E3008078812B8093E3008091E800877FBD
:1027A0008093E8000E9496048091E80080FFFCCFAF
:1027B0008091E30080688093E30082E0111183E060
:1027C000809334055AC18058823008F056C1209158
:1027D0003805309139052C3DE3E03E07A1F583E053
:1027E0008A838AE289834FB7F894DE01139620E04A
:1027F0003EE051E2E32FF0E050935700E49120FFD8
:1028000003C0E295EF703F5FEF708E2F90E0EA30EB
:10281000C0F0C7968D939D932F5F243159F74FBF1A
:102820008091E800877F8093E8006AE270E0CE0143
:1028300001960E9442058091E8008B778093E80022
:102840001CC1C096E7CF80913A0590913B05432F7C
:1028500055274330510509F44AC078F541305105F8
:1028600009F485C08BE590E0E6E4F7E042305105DD
:1028700009F003C12091E800277F2093E800209110
:102880003C0530913D058217930708F49C0140E018
:102890002115310509F070C041116EC08091E8002A
:1028A00082FDC9CF80913405882329F2853019F241
:1028B0008091E80083FFF2CFBECF4132510509F489
:1028C00047C04232510509F0D8C08330910508F065
:1028D000D4C0FC01EE0FFF1FE759FE4F0190F081BD
:1028E000E02D8A599E4FDC018C9190E01DC033276A
:1028F00021303105E9F02115310579F0223031051B
:10290000F9F02330310509F0B8C0E3EBF7E0E491CA
:102910008E2F90E0E3EBF7E007C0E5EFF7E0E491FE
:102920008E2F90E0E5EFF7E0009709F4A6C0A2CF64
:10293000E5EEF7E0E4918E2F90E0E5EEF7E0F4CFDE
:10294000E1EDF7E0E4918E2F90E0E1EDF7E0ECCFE0
:102950008330910508F091C0880F991FFC01E1595F
:10296000FE4F0190F081E02D89E090E083CF82E17D
:1029700090E0E1EAF7E07ECF80913405882309F406
:102980005ACF853009F457CF8091E80083FD53CFAB
:102990008091E80082FD82CF8091E80080FF78CFAF
:1029A0009091F3008091F2002115310519F08830E3
:1029B000910550F041E0089709F040E08091E8006F
:1029C0008E778093E80064CF44914093F100319674
:1029D000215031090196E8CF803809F04EC080912E
:1029E000E800877F8093E800809135058093F100AF
:1029F00092CE811142C0109138051230F0F58091CD
:102A0000E800877F8093E800109335050E949604C4
:102A1000112311F084E005C08091E30087FDFACF17
:102A200081E08093340542E061EC81E00E94B504CE
:102A300042E261EC84E00E94B50442E261EC82E093
:102A40000E94B50442E260EC83E00E94B5048091EC
:102A5000340513C080913805813079F481E09330DA
:102A600009F080E0809333051092E9008091E8003E
:102A7000877F8093E8000E9496048091E80083FF9E
:102A80000AC08091E800877F8093E8008091EB0086
:102A900080628093EB00AA96E3E00C949A34E6E21D
:102AA000F4E0128E138E8FEA90E09183808325E00C
:102AB000248F88E893E1938382838AE090E0958372
:102AC000848344E150E05783468368E070E0718777
:102AD0006087938782874EE150E0558744879787C8
:102AE000868740E550E0518B408B738B628B68E2A8
:102AF00070E0758B648B62E370E0778B668B68ECBB
:102B000070E0718F608F158E978F868F51A340A3D1
:102B100022A30E94710E0E94701210920B05109257
:102B20000A05EBE0F5E080818460808380910A05EE
:102B300090910B050E94F80E0E94460D0895AEE19B
:102B4000B0E0E5EAF5E10C947434A0900F01B09088
:102B5000100181E090E09093100180930F018AE3CF
:102B6000C82E84E0D82E00E0760110E015C0F401F4
:102B700025913491472D612F802F0E94B90E82E05C
:102B8000880E911C7394EBE07E12F1CFF6E1EF0E0C
:102B9000F11C1F5F143019F04701712CE8CF0F5F53
:102BA00088E5C80ED11C0630F9F60E944F151A822E
:102BB00019821C821B821E821D8218861F8288EC4D
:102BC00090E09A8789870BE512E04AE050E0B8016F
:102BD000CE0101960E940E35065F1F4F0B3AE2E0D0
:102BE0001E0799F77E01FBE0EF0EF11C8AE0F7016A
:102BF00011928A95E9F74AE050E0B801C7010E94B6
:102C00000E35065F1F4F0B3FF2E01F07A1F77E0155
:102C100085E1E80EF11C8AE0F70111928A95E9F747
:102C20008FEF9FEF9A8F898F87E08E8F4AE050E079
:102C3000B801C7010E940E35065F1F4F0B34F3E049
:102C40001F07A1F7B0921001A0920F016E96EDE060
:102C50000C94903480E00E94DF0E60E086E290E009
:102C60000E94EA340E949F150E94A90E81E00E94F2
:102C7000DF0E0895CF92DF92EF92FF928FEF9FEFDA
:102C80004430510508F46AC0FB01C080D180E28065
:102C9000F3800E94701280910A05C0FA80F9B70192
:102CA000A601769567955795479540FB81F9B70141
:102CB000A60122E076956795579547952A95D1F715
:102CC00040FB82F9B701A60133E0769567955795E9
:102CD00047953A95D1F740FB83F9B701A601E4E0A7
:102CE0007695679557954795EA95D1F740FB84F916
:102CF000B701A601F5E07695679557954795FA9542
:102D0000D1F740FB85F9B701A601A6E07695679556
:102D100057954795AA95D1F740FB86F9B701A601CB
:102D2000B7E07695679557954795BA95D1F740FBEB
:102D300087F980930A0580910B05D0FA80F9D1FAC2
:102D4000CC24C0F8C0FA81F980930B0580910A0564
:102D500090910B050E94F80E90E080E0FF90EF90BC
:102D6000DF90CF9008950E9470122FEF84E39CE0D3
:102D7000215080409040E1F700C0000088E19AE0D7
:102D80000FB6F894A895809360000FBE90936000F2
:102D9000FFCF882321F00E94320B0E94EA10089591
:102DA000882339F090913F05982B90933F050E941E
:102DB000EA100895882321F00E94390B0E94EA103E
:102DC0000895882321F00E94400B0E94EA10089584
:102DD000882309F455C0823879F40E94080681FFDF
:102DE0004FC089E30E94920B0E94EA1089E30E947F
:102DF000670B0E94EA100895833859F40E94080670
:102E000080FF3EC083E50E94920B0E94EA1083E59A
:102E1000EECF843859F40E94080682FF31C087E45F
:102E20000E94920B0E94EA1087E4E1CF9CEF980F7A
:102E3000913AE8F290E2980F983050F4877091E060
:102E400001C0990F8A95EAF7892F0E94390BD1CFDB
:102E50009BE5980F933028F490E080E00E94F20503
:102E6000089598E5980F973128F490E080E00E944B
:102E7000DC050895803F20F00E94AC070E94850782
:102E80000895FF920F931F93CF93DF93F82E009135
:102E90002404109125040115110509F449C010926C
:102EA00023041092220410921F0410922004D801CF
:102EB0001696CD91DC919E013A9521153F4108F47B
:102EC000D07ED1E0C11101C0D0E0D8011996ED91BA
:102ED000FC911A97309731F01B966D917C9180E0B0
:102EE0000995D823DD2339F08CEF8C0F813A30F52A
:102EF0008C2F0E94670BFF2099F0E0912404F09141
:102F00002504808584FD0CC080912104882341F034
:102F1000808191819C01215031092C3A3D45A0F0DE
:102F20000E94EA10109225041092240410922104A9
:102F3000C801CDB7DEB7E5E00C9498340E94EA10E2
:102F40008C2F0E94E816D7CF0E941506E9CFCF93A9
:102F5000DF93EC010E94E816CE010E94760C9E01E0
:102F6000205E31092830310510F0CD2B29F40E9464
:102F7000DA16DF91CF9108950E94C916FACFCF9348
:102F8000C82F8823C9F08238C9F40E94080681FD41
:102F900013C089E30E94920B0E94EA102FEF81EE8A
:102FA00094E0215080409040E1F700C0000089E3A8
:102FB0000E94670B0E94EA10CF9108958338A1F414
:102FC0000E94080680FDF8CF83E50E94920B0E94C4
:102FD000EA102FEF81EE94E0215080409040E1F71D
:102FE00000C0000083E5E4CF8438A1F40E94080605
:102FF00082FDE2CF87E40E94920B0E94EA102FEF3D
:1030000081EE94E0215080409040E1F700C0000044
:1030100087E4CECF8CEF8C0F813A88F580911D012B
:10302000882301F180910A0587FF1CC0EC2FE695EB
:10303000E695E695F0E0E858FE4F828190E04C2F4F
:10304000477021E030E002C0220F331F4A95E2F7BB
:1030500082239323892B79F08C2F0E94670B0E9487
:10306000EA1009C0EAE7F1E08191C817A9F321E06D
:10307000E038F207C9F78C2F0E94920B9BCF80E2B9
:103080008C0F883048F4C77081E001C0880FCA9562
:10309000EAF70E94400B8ECFEBE5EC0FE33040F4F3
:1030A000F0E0EA5DFE4F808190E00E94F20584CF5F
:1030B000E8E5EC0FE73150F4F0E0EE0FFF1FE75DBD
:1030C000FE4F808191810E94DC0576CFC03F08F4DD
:1030D00073CF8C2F0E94C7080E9485076DCF1F9366
:1030E000CF93DF93182FC0914604D09147048933C2
:1030F00021F0C0914404D0914504812F0E94BF1754
:10310000209739F4812F0E94E816DF91CF911F910B
:1031100008958FE99FE00197F1F700C00000219723
:10312000EFCF0F931F93CF93DF93C42FD22FFC01C8
:1031300082818823A9F040934C040E94D00590938B
:103140004B0480934A04C77081E001C0880FCA9580
:10315000EAF70E94E116DF91CF911F910F91089538
:1031600010914C04141336C080914A0490914B0482
:103170000E94B50520913E0430913F0482179307C9
:1031800048F5C0E2CD0F1D17B9F080E2810F8830FD
:1031900040F4177081E001C0880F1A95EAF70E9489
:1031A000DA16C83048F481E09D2F977001C0880F6F
:1031B0009A95EAF70E94E116802F0E946F18C83096
:1031C00050F6D77081E001C0880FDA95EAF70E94C7
:1031D000DA16C1CFC77081E001C0880FCA95EAF73F
:1031E000F6CFB0E0A0E0E7EFF8E10C947734EC0123
:1031F0008AE0A82E2881222309F48FC02130C9F546
:1032000099818A81913021F422960E946F1805C01D
:10321000923029F422960E94BF172196EBCF93306B
:1032200021F422960E94E816F8CF943011F02196EE
:10323000F4CF229630E020E0AE014F5F5F4F805325
:10324000990B8A30910550F02150310930F38FE904
:103250009FE00197F1F700C00000F6CFA29EB001F9
:10326000A39E700D11249C01260F371F8981EA014E
:10327000E3CFE22FF0E0E650FE4FB490822F869528
:103280008695869590E0FC01E651FE4FE49027700C
:10329000F12C022E02C0F594E7940A94E2F731E093
:1032A000E322FF24FC01E652FE4FC490D12C022EF3
:1032B00002C0D594C7940A94E2F731E0C322DD241A
:1032C000FC01E653FE4F049110E002C015950795EE
:1032D0002A95E2F701701127E114F10419F081EE4B
:1032E0000E94BF17C114D10419F086EE0E94BF17C7
:1032F0008B2D0E946F18C114D10419F086EE0E9424
:10330000E816E114F10419F081EE0E94E8160115A7
:10331000110509F482CF8CE278CFCDB7DEB7EAE0B1
:103320000C949334CF93DF93EC010E94760C9E01B2
:10333000205E31092830310510F0209741F40E94B9
:10334000E1168C2F0E94BF17DF91CF9108950E9444
:10335000D016F7CF662329F020913F0522602093F5
:103360003F059C013056211540E2340720F0305EC5
:103370002115304108F499270E9492190895B0E070
:10338000A0E0E5ECF9E10C947A347C018B01D42EB9
:1033900080911B0182FF8CC0C0916903D0916A03A8
:1033A000CE15DF0521F0E114F10409F081C0809110
:1033B0001B018B7F80931B0181FD73C0809167038C
:1033C00090916803A801481B590B81E020911901D5
:1033D00030911A014217530708F480E08170F82EEB
:1033E00080911B01F0FA81F980931B01FE0183E0BB
:1033F000F695E7958A95E1F7EE71FF27E95BFC4FBB
:1034000020813181AE014F70552781E090E002C0EC
:10341000880F991F4A95E2F7FF2009F444C0822BD8
:10342000932B918380838091460381FF08C0809114
:103430001B01806180931B0182E00E94390B809107
:10344000460385FF08C080911B01806280931B01A9
:1034500080E20E94390B6F2DCE010E94AA19DD2057
:1034600031F08091410485FF02C086FF3BC080910E
:103470004404909145040E943C0D80916903909111
:103480006A039C013056211540E2340720F0305E7B
:103490002115304108F499270E94A7170E94BE11F8
:1034A0001DC081E09BCF8095909582239323B9CF57
:1034B000C701992797013056211540E2340728F0BB
:1034C000305E2115304108F0C7010E94A717809196
:1034D000690390916A038E159F0501F310936803A9
:1034E00000936703CDB7DEB7E7E00C94963468EE3F
:1034F0007EEF90E080E00E94083560E082E090E09E
:103500000E94EA3460E083E090E00E94EA34109286
:10351000200260E084E090E00E94EA3464E082E20D
:1035200090E00E94EA3460E085E090E00E94EA3496
:1035300060E086E090E00E94EA346FEF87E090E080
:103540000E94EA3440E050E0BA0188E090E00E9436
:10355000FC3460E08DE090E00E94EA3440E050E00E
:10356000BA0188E190E00E94FC3460E087E190E0DD
:103570000E94EA3440E050E0BA018CE190E00E9401
:10358000FC3470E060E080E290E00E94083540E0AA
:1035900050E0BA0188E190E00E94FC3480E00E9493
:1035A000DF0E0E942A1640E050E0BA018FE090E062
:1035B0000E94FC3440E050E0BA0183E190E00E94B8
:1035C000FC340895A7E0B0E0E8EEFAE10C946F3423
:1035D0007C01DC0113964D915C91149711966C91CE
:1035E00011978C910E94860681116CC161E0C70120
:1035F0000E94260E8C01F7018281811161C0D701E2
:1036000012968C9181119BC00031FFE51F0709F4D0
:103610005DC101312FE5120709F45CC16801E7E5DE
:10362000DE1AFFEFCF16D10409F060F56DE572E008
:103630008C2D0E94060F892B29F586E18C9DF001C7
:103640008D9DF00D1124E15BFB4F8681813009F0E7
:1036500043C180915D0290915E02892B99F0809127
:103660005F0290916002892B69F0809161029091D4
:1036700062022091630230916402822B932B892B8A
:1036800009F434C1F7015280552009F441C10F35C6
:10369000FDE51F0709F438C100362DE5120751F08A
:1036A0000E353DE5130709F033C1809100018823F1
:1036B00009F42AC11092000180E00E944117F2C073
:1036C00080910D0190910E01019609F498CFEFE4DD
:1036D000CE2EE4E0DE2EB12CA12C9924939480917F
:1036E0000D0190910E018A159B050CF488CFF6010F
:1036F00086818823E9F0818592850817190739F4B6
:1037000080914D0490914E040817190789F0D60155
:103710001F969C921F971C961C930E931B97C60195
:103720000E949F11C60106960E945C1110923F05EF
:10373000BFEFAB1ABB0AE6E1CE0ED11CD0CFC80159
:1037400082519F45409710F00C94D9238FEF93E05E
:103750000E94DC348111A6C07EEED72ED00E0BE481
:1037600013E0D11036C019821A821B821C82992460
:103770009A9468012FEFC21AD20AC8010E94DC3461
:1037800089831A82882309F48DC0813009F07FC0B3
:10379000580132E0A30EB11CC6010E94DC34C82ED1
:1037A0008A83882309F47EC0C5010E94DC34D82EA8
:1037B0008FEF8C0D8330D8F4580143E0A40EB11C78
:1037C000DB82DD2021F0CE0101960E94F1188501F7
:1037D000D0CF0115F4E01F0709F464C0C8010E94AE
:1037E000DC34811101C0DA940F5F1F4FBACF8BEF29
:1037F0008C0D833030F5C8010396DB825C01DD203F
:1038000031F3580154E0A50EB11C0E94DC348C83C6
:103810008823E9F28B819C818130AFEF9A0710F009
:10382000982F8827B6E0CB1631F0E7E0CE1631F0BE
:103830000E94022BCCCF0E94DC2AC9CF0E94632AAF
:10384000C6CFF4E0CF12C3CF580124E0A20EB11CC2
:10385000C80103960E94DC34DD2021F1882311F198
:103860008150990B989E9001999E300D11244D2DF9
:103870004150550BCA01820F931F019708F4A7CF3F
:10388000AFE9BFE01197F1F700C00000F6CFCE011D
:1038900001960E94F11856019ACF81E00E944812C9
:1038A0000E94FE118091FC01877061F0D701129691
:1038B0008C91882339F080910B0582FF03C082E050
:1038C0000E9417122796E2E10C948B3481E00E944B
:1038D0000A12E6CF82E0FBCF823009F0D3CE80918E
:1038E000610290916202892B09F4CCCE26E12C9DD5
:1038F000C0012D9D900D1124815B9B4FDC015096E2
:103900001C920E949F11BECE81E080930001CACF1D
:1039100080910001882309F475C6480140EE841A9D
:10392000910840901F0280919B01482A8091460394
:10393000482A58E08516910408F086C0980127703F
:10394000332781E090E001C0880F2A95EAF75520DF
:1039500009F477C0482AD7018D919C910E94F00B01
:1039600021E030E0390102C0660C771C8A95E2F74D
:10397000E0912404F0912504FF83EE8320909801C8
:10398000309099011D822D81E22FF0E0EE0FFF1F94
:10399000E854FD4FC080D180C114D10409F4F4C6AD
:1039A000411005C0D60112968C91811187C0F60195
:1039B000838190E086219721892B09F47FC080853F
:1039C000982F977009F487E0F8E08F16910408F0BB
:1039D00055C0552009F44EC086958170882309F49E
:1039E0006DC0D601AD90BC900A151B0519F4552089
:1039F00009F464C0EE81FF81CE16DF0609F45EC0D3
:103A0000D6011D96ED91FC91309721F0808188239D
:103A100009F454C0642DC6010E946606882309F487
:103A20004DC00A151B0509F002C70115110509F45F
:103A300003C7511003C7A214B30409F03FC0512CAF
:103A4000FDC68095482287CF552009F486C610937D
:103A50009901009398010E94C40560931B04709320
:103A60001C0480931D0490931E0410922304109252
:103A7000220471CF82FB882780F9B0CF5520F1F066
:103A80008170ACCF0E94E816F7C60497813A910581
:103A900048F48A2D0E94920B552009F4B3C50E9468
:103AA000EA1000CF0E94EA108FE39CE90197F1F73A
:103AB00000C000008A2D0E94BF17EECF9D819F5F3E
:103AC0009D8361CFFC01208131810217130709F02A
:103AD00092C5511092C51092210480E067C68823D8
:103AE00009F4DFC5FA018189882309F4DAC5C50123
:103AF0008B5A9B4F0E945C11D4C580911B01816041
:103B000080931B01FCC580911B018E7F80931B015C
:103B10000E94BE11F4C580911B018F7E013E1105EC
:103B200031F0053E1105C9F480911B018F7D809312
:103B30001B0180911B0180FFF1C5D70112968C916A
:103B40000832110528F50E31110508F074C0043053
:103B5000110580F58111DEC5E1C5C80190568115BA
:103B600040E2940720F0905E8115904110F780911B
:103B70001B0182FFD3C58091430481FDCFC525E39E
:103B800032E040E0B60190E080E00E94BF19C6C577
:103B90000933110558F40D32110518F40B321105D3
:103BA000C9F69091410492FDD5CF08C004361105A5
:103BB000C1F3D0CF9091410494FDCCCF882309F478
:103BC000A1C09091460380911F02282F292B322FEC
:103BD0003D7FB1F110926A03109269033091410464
:103BE00031FD2EC0F80143E0F695E7954A95E1F7DF
:103BF000EE71FF27E95BFC4F98012F70332781E0BE
:103C000090E002C0880F991F2A95E2F78095909561
:103C100020813181822393239183808360E0C801D6
:103C20000E94AA1980911F028D7F0E941E0B82E0C4
:103C30000E94171237CE9091410493FD8BCFBECFD7
:103C400038E0F701A5E3B2E001900D923A95E1F773
:103C5000109237021092390210923802A090690334
:103C6000B0906A030A151B05B1F53091410435FF88
:103C700032C040911B0141FB992490F841FF02C0E2
:103C800036FF29C04091670350916803B601641B59
:103C9000750B40913E0450913F0464177507D8F4AA
:103CA00091FF08C080911B01806180931B0182E01D
:103CB0000E94390B8091460385FF08C080911B014B
:103CC000806280931B0180E20E94390B692DC5013F
:103CD0000E94AA19E7CD90911B0121FB91F99093C5
:103CE0001B018D7F0E941E0B10936A0300936903D2
:103CF000D0926803C092670380911B018460809317
:103D00001B0195CF970140E0B601C8010E94BF1981
:103D1000C9CD053F4CE5140709F463C008F45BC046
:103D2000063F8CE5180709F462C0D70112963C9152
:103D3000332309F44BC510924C040330BDE51B0737
:103D400008F061C00A3FECE51E0730F4C80182505C
:103D50009C45449708F061C00E944D0E90930B055E
:103D600080930A0501313CE5130709F46CC108F0A2
:103D7000E6C009305CE5150709F453C108F0B1C08D
:103D800005309CE5190709F444C108F096C00330DA
:103D9000BCE51B0709F433C108F037C180910A055F
:103DA00081600230FCE51F0709F42CC180910A05EF
:103DB00090910B050E94F80E0E94701273CD07E2DD
:103DC00025EE45EE68ED7CE5C4C406E221EE40EE4A
:103DD00063EF7CE5BEC407E225EE44EE64EF7CE5CC
:103DE000B8C406E221EE42EE65EF7CE5B2C407E21C
:103DF00025EE46EE66EF7CE5ACC408E221E045EE38
:103E000069ED7CE5A6C40136FDE51F0709F4A4CFE2
:103E1000053A2DE5120709F49FCF06318CE5180706
:103E200009F4D9C40A358DE5180709F465C108F00D
:103E30003EC10115ACE51A0709F444C10E3D1C450D
:103E400009F44DC1F70186819781009709F458C1A3
:103E50000E948B09182F092FF701D280C580C294C8
:103E60003FE0C3228091FC018770C1F0AD2CDD20C2
:103E7000B1F0892F807F803421F080E2810F88307B
:103E800068F080910B0582FF09C082E00E94171242
:103E90008091FC018770AA24A3948111A12C902EFB
:103EA00092942FE09222FBE0F91508F4B6C1E92DB7
:103EB000F0E0EE5CFA4C0C94623480910A0580626A
:103EC00007302CE5120709F49DC080910A05806136
:103ED00008303CE5130708F495C080910A0580641A
:103EE00091C080910A058B7F0D304CE5140709F4D1
:103EF00089C088F40B308CE5180709F498C08091CC
:103F00000A058C600C309CE5190708F47BC0809191
:103F10000A058D7F77C080910A058F7E0F30ACE552
:103F20001A0709F46FC080910A05877F0031BCE54C
:103F30001B0708F467C080910A058F7D63C00D3FA1
:103F4000ECE51E0709F47BC058F505312CE5120796
:103F500009F483C098F480910A05837F03314CE50E
:103F6000140709F44FC008F472C00E9470129091B7
:103F70000A05892F97FB87F9805844C00B3F8CE5D1
:103F8000180709F44AC008F056C080910B058160FB
:103F90000A3FACE51A0709F009CF80930B0506CF5D
:103FA0000130BDE51B0709F464C0C0F480910B0526
:103FB0008C7F0F3FFCE51F0781F380910B05836029
:103FC00001152DE5120748F380910B05982F909568
:103FD00091708E7F892B90FB81F9DFCF01363DE513
:103FE000130709F44CC0053A4DE5140709F44EC017
:103FF00002305DE5150709F0D9CE60E03BC0809145
:104000000A05826080930A05D1CE80910A058460FA
:10401000F9CF80910A058860F5CF80910B05826009
:10402000BCCF0E94701280910A058068EBCF80910E
:104030000A058E7FE7CF80910B058E7FAECF8091F2
:104040000B058D7FAACF80910A058F7BDBCF0E9465
:10405000701280910A058F77D5CF80910A0582FB77
:10406000992790F921E0922790FB82F990FB83F940
:10407000C9CF61E08EE090E00E94EA3497CE909143
:104080000A05892F8F7E94FF8061BCCF90910A052D
:10409000892F8E7F90FF8160B5CF80919A01811129
:1040A00004C089E20E94670BFACC85E3FBCF0C3594
:1040B000EDE51E07B9F010F1073A1D4509F0C2CE33
:1040C0000E94B3160E9470123FEF44E35CE031504F
:1040D00040405040E1F700C000000E94A4050E944B
:1040E000771AEECF80910B0582FB882780F991E04B
:1040F00089270E943312A6CE81E0FBCF80E0F9CF62
:10410000828100811181882369F0C8010E94B80D65
:10411000D82E682FC8010E94240CB8018D2D0E9452
:104120009B0D96CEC8010E94F00BD82EF6CF202F03
:104130002F70B22E802F807F19F0B29490EFB922A9
:10414000DD20A9F0BB2059F080E2810F883010F00B
:10415000111107C08B2D0E94400B0E94EA10812F85
:104160005AC080913F05B82AB0923F05F6CF812F03
:104170000E94E816BB2009F450C080E2810F88300D
:1041800010F0111104C08B2D0E94390B03C08B2D30
:104190000E94320B0E94EA1040C0302F3F70B32EB5
:1041A000802F807F803219F0B29480EFB8221123E3
:1041B00021F1113009F4AEC0DD2009F4B7C0CC20E4
:1041C00009F47FC020E0D7014C9111965C911197C2
:1041D00012966C91129713967C91139714968C916A
:1041E0000E94030E8091430481FDB9CFF7018581C0
:1041F00080FFB5CF8F70858364C080910B0582FDF1
:1042000040C0DD20C1F1BB2029F08B2D0E94400B66
:104210000E94EA1080E00E94BF17A92DA850BB0B96
:10422000149710F40E940806812F902F0E945B0CB7
:104230008111C2C110929D0110929C01AA20B1F07F
:104240008091FC0180FD12C0D70112961C928595C9
:10425000859585950E944812C7010E94E21A8091B7
:10426000FC018595859585950E940A1260E0C7013D
:104270000E94260E27CB80E00E94E816BB2069F240
:1042800082CFDD2011F1C11004C080911F028B2963
:1042900019C041E0C41206C080911F028B290E9400
:1042A0001E0BBBCF80914204823078F3C812EDCF51
:1042B0000E94130B90919B018B2D892B8913809366
:1042C0009B018B2D0E94E116A8CFC11003C00E9454
:1042D000130B17C08091420451E0C51216C0823002
:1042E00008F49BCF809146038B2109F496CF0E945E
:1042F000130B90919B018B2D8095892389138093BB
:104300009B018B2D0E94DA1688CF823000F3C812F1
:10431000DECF83CF80914804DD2021F08C1508F496
:104320007CCFCFCFC81608F078CFEBCFCC2049F3A5
:104330008091460490914704193321F08091440400
:10434000909145040E943C0D812F0E94E81665CF94
:10435000802F86958695837069F0813009F05DCF56
:10436000812F902F9370D11002C090E080E00E94C6
:10437000DC0553CF812F902F9370D11002C090E0B5
:1043800080E00E94F20549CF812FDD2029F00E94B4
:10439000C7080E94850741CF0E94AC07FACF802F43
:1043A000837091F5D11039CF412F429546954770D2
:1043B000440F440F812F8F70042E01C0880F0A9480
:1043C000EAF7212F207114FF07C02FE030E001C071
:1043D000220F4A95EAF72095302F3695369533709F
:1043E000323069F050F440912002313029F0822BB4
:1043F00084230E946B1211CF842B822BFACF282B9F
:10440000809120028227F5CF8695DD2011F0802F44
:104410008170882309F401CF412F4295469547705A
:10442000440F440F812F8F70042E01C0880F0A940F
:10443000EAF7212F207114FF07C02FE030E001C000
:10444000220F4A95EAF72095302F3695369533702E
:10445000323069F050F440913E05313029F0822B22
:1044600084230E94F911D9CE842B822BFACF282BDA
:1044700080913E058227F5CFF02FFF70BF2EDD2003
:1044800029F08F2F0E944812812F1CCF812F0E946C
:10449000DA168B2D0E940A12C0CE123F89F160F409
:1044A000103FB9F0113F81F0DD2009F480C0C11048
:1044B00056CE802F8F7128C0133F49F1143FA1F7CA
:1044C00080910B0582FD2FC0802F8F71DD2011F3AD
:1044D0001BC080914804DD2079F0C81608F09DCEFD
:1044E000202F2F7181E090E001C0880F2A95EAF714
:1044F00090913E058927B5CF8C1508F48ECEF0CF6C
:10450000802F8F71D110C6CF0E94481286CE80E0D6
:10451000DD2009F4A6CF81E0902F9F7101C0880FA4
:104520009A95EAF79ECF80914204823040F1DD20D7
:10453000D1F09091FC019770943041F40E94460BA9
:10454000802F8F710E940A12A12C67CEC816E0F747
:10455000202F2F71B22E822F0E94481263E08B2DE4
:104560000E945412F1CFC81630F00E94460B64E04E
:10457000802F8F71F5CF81E00E941712E5CFDD20EB
:1045800059F0302F3F71B32E832F0E94481263E001
:104590008B2D0E94541241CE81E00E94171241E0FF
:1045A0004C1508F03ACE82E00E94171236CEC110A8
:1045B000BFCE802F8F716ECFDD2019F0C1103ACEA3
:1045C0003DCEC11037CE20E0F7014081518162819C
:1045D000738184810E94030E8091430483FF2ACE5D
:1045E00080919C0190919D01029709F023CE812F2B
:1045F0000E946F181FCE552029F0DC0118968C916F
:1046000085FF6BCAC80197558F3F910511F008F0DF
:1046100048C020910D0130910E012817390724F46C
:1046200090930E0180930D01F701228136E1389FAE
:104630005001399FB00C1124A501415B5B4F6A0109
:10464000DA0150962C935097928116968C9116977A
:10465000992309F444CA1A961C930E9319978F5FF5
:1046600016968C930E94D005F601968785878091D7
:104670001F02878380913F0590914603892B808795
:104680000190F081E02D309741F0D60154966D9164
:104690007C91C5018B5A9B4F099510934E04009352
:1046A0004D048091410480FF39C00E94D0056C0107
:1046B000D70112968C91882309F42DCA80911B0191
:1046C00082FF08C025E332E040E0B60190E080E0E0
:1046D0000E94BF190B31BCE51B0709F40ECA0C314F
:1046E000ECE51E0709F40FCA90911B01892F8E7FFC
:1046F00090FF81600A31FCE51F0709F407CAC80171
:104700009056811520E2920728F0905E8115904125
:1047100008F00FCA10926A0310926903033FBCE5C8
:104720001B0709F452CB08F0F4CA083DFCE51F074B
:1047300009F445CB093D2CE5120709F45ECB073D92
:104740003CE5130709F0F1CA06E221EE41EE67ED00
:104750007CE5C7010E949118A5C8809198019091AD
:1047600099010817190781F4109299011092980184
:1047700010921B0410921C0410921D0410921E042F
:104780001092230410922204809124049091250415
:10479000009709F437CFA8E08A16910408F092C96F
:1047A000642D0E94660681112DCF81E00E94411781
:1047B00029CF00313FE5130709F46FC801314FE5F8
:1047C000140711F00C94421B82E068C806315CE5C6
:1047D000150709F037CB80914603982F9A7A2091DC
:1047E000400420FF04C0482F447409F090E021FFEA
:1047F00004C0482F417109F090E022FF04C0482F07
:10480000487809F090E023FF03C0827209F090E03D
:10481000332309F442CC81E0911101C080E0809300
:104820009A0189E2911185E30E94920B38C9A11483
:10483000B10409F000C9512CB12CA12C80E00E94D8
:104840004117D0922504C092240481E08093210472
:10485000F601858180931F0451100EC0AB2861F0D2
:10486000F601808191819C0124503109213A310562
:1048700008F008C90E94670BD6011696AD90BC904F
:10488000C5019A9581159F4110F4E0EEBE22772470
:104890007394C50101978C3A9D4508F0712CD6019F
:1048A0001996ED91FC911A97309731F01B966D9106
:1048B0007C9181E009957822772079F0F601868154
:1048C00097810E94760C80932004C501F8E08F1632
:1048D000910408F0DAC80E9415060E94EA10DCC8AC
:1048E000B0E0A0E0E6E7F4E20C9479348091B50101
:1048F000807F31F48091B201C091F901811107C02C
:10490000CDB7DEB7E8E00C9495342196C77080915E
:10491000B8018C17A9F3F090B001E090B101C090FC
:10492000B301D090B401A6016E2D8F2D0E94860692
:10493000D0E08111EACF8E0183E0000F111F8A952C
:10494000E1F7F801E754FE4F81818E11DECF8081BF
:104950008F11DBCF82818111D8CFE380F480EC18F6
:10496000FD0860E080EB91E00E94260E80913E04FD
:1049700090913F04E816F90640F68091B5018F70DA
:1049800080618093B501F801E254FE4F80818F7001
:104990008061808380EB91E00E94E21A0E94E60B26
:1049A000AFCFA5E1B0E0E7EDF4E20C9470348C01F8
:1049B00085E0F801DE01519601900D928A95E1F7AC
:1049C000D8014C9011965C9011971296EC9012972A
:1049D0001396CD90DC9060E080EB91E00E94260E73
:1049E00080EBA82E81E0B82E8090B3019090B401A6
:1049F000A4016091B1018091B0010E9486068111ED
:104A0000B6C1F090B201F601E819F9094F0160E072
:104A1000FF2009F459C1C5010E94260E60903E0492
:104A200070903F043090B5018614970408F0FFC0E1
:104A30004091B3015091B401B090B001A090B10188
:104A4000832D807F6A2D09F099C08B2D0E948606E8
:104A5000FE2C811127C0D80111968C9111978A11D3
:104A600021C08C918B111EC02091B6013091B701ED
:104A700016968D919C9128173907A1F4E11012C068
:104A8000832D8F7080618093B50180EB91E00E944F
:104A9000E21A8091B501F80185838F2D6596E1E1D9
:104AA0000C948C34F4EF6F16F1E07F0620F48091C3
:104AB000430480FF21C0A601652D842D0E94860637
:104AC000811118C081E08E2580FF16C04E2D652D06
:104AD000842D0E94C60B882379F080EB91E00E9420
:104AE000E21A88E0E0EBF1E0DF011D928A95E9F738
:104AF000F12CD3CF80E0E8CFA601652D842D0E9454
:104B00008606811124C081E08E25B82FB170CB2E8E
:104B100080FF2BC04E2D652D842D0E94C60BD82EF4
:104B2000811123C0498A5A8A89899A890E94E70D8E
:104B3000292F22952F70223060F0243088F49F7046
:104B400061F0F8019581907F41F4FD2CA6CF80E0C3
:104B5000DCCF9F7011F08823C1F3805E8830A8F30A
:104B6000C8010E94E21ADC2CF0CFEE2009F495CFA8
:104B70008091B50181608093B501BACF8B2D0E94E1
:104B80008606811124C0D80111968C9111978A1143
:104B90001EC08C918B111BC02091B6013091B701C2
:104BA00016968D919C9117972817390781F4E1107B
:104BB0000EC015963C92C8010E94E21A88E0F801E6
:104BC000A0EBB1E001900D928A95E1F766CFC801A4
:104BD0000E94F40D882339F1EE2029F18091B5016E
:104BE0008032A0F02091B0013091B1013A8729873D
:104BF0001B86DD86CC868E878091B6019091B701A9
:104C0000988B8F87CE0109960E94E21A88E0F801FE
:104C1000A0EBB1E001900D928A95E1F70E9470241B
:104C2000FF24F3943ACFC8010E94E21AF9CF832DF2
:104C3000807F09F452CF9090B0018090B1014091F3
:104C4000B3015091B401682D892D0E94860681110F
:104C50001CC0F8018181881118C08081891115C09C
:104C60002091B6013091B7018681978128173907C5
:104C700061F4E1100AC03582C8010E94E21A88E09E
:104C8000D5011D928A95E9F708CFC8010E94F40D5D
:104C9000882349F2EE2039F28091B501803208F480
:104CA000B5CF2091B0013091B1013A8329831B82A5
:104CB000DD82CC828E838091B6019091B701988776
:104CC0008F83CE010196A0CF80EB91E00E94260E4B
:104CD00080913E0490913F048816990680F6FE2C40
:104CE000EE2009F4A0CFE090B001D090B101409146
:104CF000B3015091B4016D2D8E2D0E948606811155
:104D000028C0F80181818D1124C080818E1121C0BD
:104D10002091B6013091B701868197812817390714
:104D2000C1F48091430482FD49CF9091B50190FD7B
:104D300045CF907F09F442CF8091B5018583903FA4
:104D400009F439CF982F907F905F8F70892B8583DE
:104D500032CFC8010E94F40D811158CF8091B50166
:104D600081608093B501C8010E94E21A96CEEE20C0
:104D700009F459CFC8010E94F40DF82E882309F4D4
:104D800052CF88E0F801A0EBB1E001900D928A9536
:104D9000E1F78091B0019091B1010E94E70D0E946E
:104DA00070247BCEA0E1B0E0E8EDF6E20C947F3415
:104DB00029873A874B875C876D877E878F87988B9B
:104DC000CE0109960E94D12481112FC088E0FE01F6
:104DD0003996DE01119601900D928A95E1F74C8586
:104DE0005D856A8589850E94860681111EC0A09115
:104DF000B801B0E0CD010196877099272091F901A3
:104E000028171906E1F093E0AA0FBB1F9A95E1F766
:104E1000A754BE4F98E0FE01319601900D929A95ED
:104E2000E1F78093B8010E94E60B8091F90190911F
:104E3000B801891312C06096E2E00C949B340E9482
:104E400070121092B8011092F90188E0E0EBF1E0E5
:104E5000DF011D928A95E9F7E8CFB8E08B9FC0018A
:104E6000112487549E4F0E94D124882321F38091DE
:104E7000F90190E00196877099278093F901D5CFC9
:104E8000EF92FF920F931F93CF93DF9380916E0366
:104E9000882361F0C0916D038CE0F82E80916E0341
:104EA000C81748F010926E0310926D03CDB7DEB7AD
:104EB000E6E00C949734EE24E394EC0EE0926D035C
:104EC0000C2F10E0CF9DE0011124C159DC4F4B8124
:104ED0005C81698188810E94860681111DC08E8156
:104EE0009F81892B21F488859985019651F4288129
:104EF00039814A815B816C817D818E819F810E9495
:104F0000D226F09EF001F19EF00D1124E159FC4FE4
:104F10001482138210923F05CE2DC0CF109212043E
:104F20001092110410921C018091100480930F04C0
:104F30000E94BF060E9440270895B0E0A0E0E3EA87
:104F4000F7E20C947034C0910F0497E0892E01E0D1
:104F500010E02CE0322E3EEF932E442443948091B7
:104F600010048C1309C00E9440270E94BF06CDB7D1
:104F7000DEB7E1E10C948C34D0E0FE01EE0FFF1FB0
:104F8000E95FFB4F80819181889ED001899EB00DA1
:104F90001124A153BC4F14962C911497211158C081
:104FA00050906E03EFE6F3E030E020E0712C5D01FD
:104FB000251508F04BC0E284F384D501CD90DC9038
:104FC0006FEF7FEF612C462D50E0DA01AA0FBB1F77
:104FD000AC0DBD1D0D90BC91A02D109731F0EA16BF
:104FE000FB0609F4BA016394EECF6F3F7607A9F18F
:104FF000D80102C0AA0FBB1F6A95E2F77A2AB8014E
:10500000062C02C0660F771F0A94E2F7AB014150ED
:10501000510974161506F9F4329EF001339EF00D15
:105020001124E159FC4F889ED001899EB00D1124B6
:10503000A153BC4F12962D913C9113973783268331
:10504000908291829187808715964C920E9491065A
:105050002196C37084CF148213822F5F3F4F3C96FA
:10506000A7CFA9E1B0E0E7E3F8E20C946F34942F06
:10507000498B252F5A8B6B8B7C8B8D8B4C895D8953
:10508000622F892F0E948606811109C080919C01A0
:1050900090919D01019690939D0180939C018B8935
:1050A000811110923F051D861E861F86188A85E095
:1050B000FE017196DE01199601900D928A95E1F735
:1050C00080910B0582FF1EC08091280490912904D5
:1050D000892BC1F00E94D0052091FA013091FB018B
:1050E000821B930B20912804309129048217930787
:1050F00020F08091FC0182FFE2C10E944D0B8111E2
:105100000E94130B4C855D856A8589850E94860601
:10511000811111C061E0CE0109960E94260E6C013A
:105120008B8527EFC2162CE5D20681F4882321F166
:1051300081E080931C0129853A854B855C856D85CE
:105140007E858F8598890E94D226C6C038EFC31607
:105150003CE5D30629F4882379F00E948E27EBCF13
:1051600049EFC4164CE5D40639F4882329F0809120
:105170001C018111F2CFDCCF0FEC13E0512CB12CCC
:10518000A12C22242394312C2EEF422EF8014081B1
:10519000518188248A94982C20E0822F90E0FC0191
:1051A000EE0FFF1FE40FF51F60817181611571051E
:1051B00031F0C616D70609F44C012F5FEECFF12C63
:1051C000FFEF8F169F0609F449C0F8014481F09063
:1051D0001C018F2D411180E0F82FF170FF2EF80196
:1051E000E58086819B85992309F4F8C0FF2009F4A6
:1051F000F5C060903C0470903D04E11013C0A10123
:10520000082C01C0440F0A94EAF7842B868380910E
:105210006B0390916C038615970520F470926C03D4
:1052200060926B03C10102C0880F991F2A95E2F7B3
:105230000197F80126812817190681F4809111043D
:1052400090911204009709F44BC00E94B5056816AE
:10525000790608F045C021E0F80124835F28FFEFBC
:10526000AF1ABF0A095F1F4F28E0A216B10409F068
:105270008DCF8B85882309F40DC1552009F40AC10F
:105280000E94D005909312048093110480916E03C4
:10529000883010F591E0980F90936E0398E0FE012E
:1052A0003996DE01119601900D929A95E1F73CE056
:1052B000839FC001112481599C4F28E0FE01319643
:1052C000DC0101900D922A95E1F72FEF3FEFFC01F1
:1052D00031872087D386C2866996E2E10C948B34AD
:1052E00080910F0450911004982FF0E0E0E08513B6
:1052F00014C090930F04E017F10709F4AFCF90E0CA
:10530000FC01EE0FFF1FE95FFB4FB182A082019607
:105310008370992780931004A1CF682E712CF3011C
:10532000EE0FFF1FE95FFB4F2081318147E0429F75
:10533000D001439FB00D1124A153BC4F6D917C91BE
:105340001197798F688F40E020E030E0E32FF0E0A4
:10535000EE0FFF1F688D798DE60FF71F808091801B
:1053600081149104E1F0F8010190F081E02DFF8BB0
:10537000EE8B20E005C08616970609F44F2D2F5FAF
:10538000E22FF0E0EE0FFF1F6E897F89E60FF71F17
:10539000608171816115710571F73F5FD7CF44233B
:1053A000D1F0F801231708F0FD0121E024830E1746
:1053B0001F0721F490930F04F42E50CF981305C0CB
:1053C000AE17BF0711F49F5F937093012F5F3F4F9C
:1053D000822F83708CCFF0E0E0E0F7CF90E0E11017
:1053E00020C0B10102C0660F771F2A95E2F79B012A
:1053F000215031098217930731F4442309F448C03E
:10540000C5010E949106C101082C01C0880F0A94B1
:10541000EAF7982F9095F801868189238683FE2CE0
:105420001DCF9C01082C02C0359527950A94E2F700
:10543000A90141705527BC0161507109862397234A
:10544000892B11F5452B01F1F80182819381892B7C
:10545000C1F01B821C821D821E8249824A820E94E8
:10546000D0058160582F9D838C83F80182819381C0
:105470008F83988729813A814B816D817E810E943B
:10548000D226F8011582BFCFF22FF170EF2EBBCFDD
:10549000EF2CB9CF90910F0480911004981731F040
:1054A0000E949D27552009F446CE16CF0E94402722
:1054B00010921204109211040E94BF06F3CF82E0F2
:1054C0000E9417121ACEA5E0B0E0E9E6FAE20C94C9
:1054D0007F349093430380934203811520E2920727
:1054E00030F40E94A7172596E2E00C949B3480EFDD
:1054F00089838A831B820E94D0058160782F9D83D7
:105500008C8349815A816B818D810E943128EBCF38
:105510000F931F93CF93DF938C01EB016DE572E046
:105520008C2F0E94060F892BA1F480914404909146
:1055300045040E943C0DDD27CB5ADD4F8881F801E0
:10554000108218828330F1F048F4813059F08230B3
:1055500081F0DF91CF911F910F9108958430B9F0C0
:105560008530B9F780915D0290915E02009789F3D2
:1055700006C080915F0290916002009799F30E94AB
:10558000632AE7CF8091610290916202F6CF809109
:10559000630290916402009791F720915D0230912F
:1055A0005E0280915F029091600221153105F1F257
:1055B000009729F7C901E3CFA5E0B0E0E2EEFAE2F7
:1055C0000C947F349093430380934203811520E22F
:1055D000920730F40E9492192596E2E00C949B34D5
:1055E00080EF89838A8381E08B830E94D00581606C
:1055F000782F9D838C8349815A816B818D810E9494
:105600003128EACFCF93DF93EC010E94DC2A80910E
:105610004404909145040E943C0DCE010E94632AEF
:10562000DF91CF9108950F931F93CF93DF938C0158
:10563000862F6DE572E00E94060F892BB1F4C091B0
:105640005D02D0915E02209781F0F8018081833065
:1056500051F4CE010E94022BCE010E94022BCE01FA
:105660000E94022B02C08430D0F7DF91CF911F91AE
:105670000F9108950F931F93CF93DF938C01EB014C
:105680006DE572E08C2F0E94060F892B09F061C036
:10569000FE01FF27D8018C91EB5AFD4F8130D9F4E0
:1056A00019969C911997992311F080830CC01A9632
:1056B0009C919923D1F382E0808380915F02909145
:1056C00060020097D9F480915D0290915E0200978C
:1056D00009F43FC013C08230D1F519968C91199707
:1056E00081112AC01A968C9181110BC083E08083AE
:1056F0008091610290916202009701F10E94DC2A80
:1057000028C084E0808380916302909164020097B6
:10571000A9F780915D0290915E020097F9F00E94D6
:10572000022B80915F0290916002009739F780917F
:105730005D0290915E02E2CF85E0808380915D0200
:1057400090915E02009729F00E94022BF0CF86E034
:105750008083DF91CF911F910F91089580915F0217
:1057600090916002B4CF1F920F920FB60F92112446
:105770002F933F934F935F936F937F938F939F9359
:10578000AF93BF93CF93DF93EF93FF93D091E90053
:10579000DF708091EC00C82FC17080FDC0E81092CE
:1057A000E9008091F000877F8093F00078940E9458
:1057B00086121092E9008091F00088608093F000DA
:1057C000CD2BCF70C093E900FF91EF91DF91CF9186
:1057D000BF91AF919F918F917F916F915F914F9109
:1057E0003F912F910F900FBE0F901F9018951F9211
:1057F0000F920FB60F9211242F933F934F935F9305
:105800006F937F938F939F93AF93BF93EF93FF9388
:105810008091E10082FF09C08091E20082FF05C013
:105820008091E1008B7F8093E1008091DA0080FF1E
:1058300024C08091D80080FF20C08091DA008E7F44
:105840008093DA008091D90080FF9DC080E189BDFE
:1058500082E189BD09B400FEFDCF81E0809334056B
:1058600080910F05811109C00E941C040E94E70469
:105870008091E20084608093E2008091E10080FFEB
:1058800017C08091E20080FF13C08091E2008E7FFC
:105890008093E2008091E20080618093E200809139
:1058A000D80080628093D80019BC85E080933405CD
:1058B0008091E10084FF2BC08091E20084FF27C02B
:1058C00080E189BD82E189BD89B5982F917080FF03
:1058D000FBCF8091D8008F7D8093D8008091E1002C
:1058E0008F7E8093E1008091E2008F7E8093E200C2
:1058F0008091E20081608093E200809135058823E9
:1059000009F447C084E08093340580913405809188
:10591000E10083FF27C08091E20083FF23C08091D4
:10592000E100877F8093E10082E08093340510924C
:1059300035058091E1008E7F8093E1008091E20047
:105940008E7F8093E2008091E20080618093E2008C
:1059500042E060E080E00E94B5048091F000886041
:105960008093F000FF91EF91BF91AF919F918F9144
:105970007F916F915F914F913F912F910F900FBE4B
:105980000F901F90189519BC1092340510920F05B6
:1059900074CF8091E30087FD93E090933405B5CFF9
:1059A00078941F921FB61F9211248F939F93AF93E9
:1059B000BF938091060590910705A0910805B091CD
:1059C00009050196A11DB11D809306059093070559
:1059D000A0930805B0930905BF91AF919F918F9156
:1059E0001F901FBE1F9018951F921FB61F92112463
:1059F0008F939F93AF93BF9380910505811113C03F
:105A00008091060590910705A0910805B0910905C0
:105A10004196A11DB11D8093060590930705A093A3
:105A20000805B0930905BF91AF919F918F911F9089
:105A30001FBE1F901895CDB7DEB7E4970FB6F89448
:105A4000DEBF0FBECDBF85B7806885BF85B78068D4
:105A500085BF84B7877F84BF0FB6F894A8958091DF
:105A60006000886180936000109260000FBE80E843
:105A700090E00FB6F89480936100909361000FBEA0
:105A80008FE299E090937701809376010E941A0F3C
:105A90000E94DF0F0E94530F0E94460D0E941C04BB
:105AA0000E94E7048091E20084608093E200789491
:105AB000809134058823A1F01091E9001F70909126
:105AC000EC00892F817090FD80E8182B1092E9007E
:105AD0008091E80083FD0E9486121F701093E900F8
